:020000040800F2
:10000000380A002081A50008352B0008372B00088E
:100010003B2B00083F2B0008432B0008000000008A
:10002000000000000000000000000000472B000856
:10003000492B0008000000004B2B00084D2B000846
:100040009BA500089BA500089BA500082BA2000803
:100050009BA500089BA500089BA500089BA5000880
:100060009BA500089BA500089BA500089BA5000870
:100070009BA500089BA500089BA500089BA5000860
:100080009BA500089BA500089BA500089BA5000850
:100090009BA500089BA500089BA500089BA5000840
:1000A0009BA500089BA500089BA500089BA5000830
:1000B0009BA50008512A0008D5D400089BA500087C
:1000C0009BA500089BA500089BA500089BA5000810
:1000D0009BA50008F7A400089BA500089BA50008A5
:1000E0009BA500089BA500089BA500089BA50008F0
:1000F0009BA500089BA500089BA500089BA50008E0
:100100009BA500089BA500089BA500089BA50008CF
:100110009BA500089BA500089BA500089BA50008BF
:100120009BA500089BA500089BA500089BA50008AF
:1001300000F002F800F06BF80AA090E8000C82448E
:100140008344AAF10107DA4501D100F060F8AFF26B
:10015000090EBAE80F0013F0010F18BFFB1A43F0A5
:1001600001031847F40F0100141001000A444FF076
:10017000000C10F8013B13F0070408BF10F8014B06
:100180001D1108BF10F8015B641E05D010F8016B4B
:10019000641E01F8016BF9D113F0080F1EBF10F8AF
:1001A000014BAD1C0C1B09D16D1E58BF01F801CBD2
:1001B000FAD505E014F8016B01F8016B6D1EF9D555
:1001C0009142D6D37047000000230024002500266A
:1001D000103A28BF78C1FBD8520728BF30C148BFAA
:1001E0000B60704764290DF0498775290DF046872B
:1001F00078290DF07F8763290EF01E8173290EF098
:100200002381002070471FB51FBD10B510BD0EF033
:1002100055F91146FFF7F7FF02F026FC0EF073F9CF
:1002200003B4FFF7F2FF03BC0AF00AF908B5012195
:1002300008200BF01DF9C020ADF8000010208DF84B
:10024000030003208DF8020069468D480AF0EEFD98
:10025000C0218B480AF097FE08BD10B58848006899
:1002600020F07040864908600846006840F0405021
:1002700008600120834908608349C1F8980104207F
:100280000AF08DF800207F49086004200AF087F802
:1002900000207D49C1F8980110BD10B5784800686C
:1002A00020F07040764908600846006840F04050F1
:1002B000086000207349091F08607349C1F89C0158
:1002C00004200AF06CF801206E49091F08606E498D
:1002D000C1F89C0104200AF062F810BD10B500249A
:1002E0006748006820F0704065490860084600686B
:1002F00040F0004008600120624908600AF04FF8B1
:1003000001206149C1F898010AF049F807E0601C32
:10031000C4B2FA2C03DDFFF7C0FF012010BD59481D
:10032000803800680028F2D15649091F086000BFD4
:10033000F4E710B500205349091F086050480068D1
:1003400020F070404E4908600846006840F0405078
:10035000086000204C49C1F89C0102200AF01FF8F7
:1003600001204849091F086002200AF018F80020FF
:100370004549C1F8980110BD10B500204149091F39
:1003800008603F48006820F070403D49086008461A
:10039000006840F04050086001203B49C1F89C01D2
:1003A000022009F0FCFF01203649091F08600220E5
:1003B00009F0F5FF00203449C1F8980110BD70B56F
:1003C00004462F48006820F070402D490860084618
:1003D000006840F04050086000202A49091F08606A
:1003E000002517E0E009274908606006040E022096
:1003F00009F0D5FF01202449C1F89801022009F035
:10040000CEFF00201F49091F0860022009F0C7FF26
:10041000681CC5B2082DE5DB70BD70B5054600242B
:100420001748006820F070401549086008460068C9
:1004300040F000400860002617E000201149091F25
:100440000860022009F0ABFF01200F49C1F89801B4
:100450006006040E0B488038006808B1601CC4B206
:10046000012009F09CFF701CC6B2082EE5DB15B90F
:10047000FFF782FF01E0FFF75CFF204670BD000040
:10048000000C01409C812142008021421CB50024C7
:100490001F20FE490880FEA010210B467822CDE9DE
:1004A000001005210A2009F0F2FCFDA010210B46E6
:1004B0006422CDE900101421DC2009F0E8FC0020C2
:1004C000F2490880F8A0182110235022CDE900102D
:1004D0002D218C2009F0DBFCF5A0182110235022DF
:1004E000CDE900104B218C2009F0D1FCF2A018219D
:1004F00010235022CDE9001069218C2009F0C7FC9F
:100500004FF47840E14908802C234FF4B472194627
:10051000002009F0AFFA82234FF4B472194600208C
:1005200009F0A8FA0020D9490880E5488078A0425F
:1005300071D0E348847818200090E1488288042331
:100540002D21002009F0EBFBDEA0182110230F2243
:10055000CDE900102D21322009F099FC18200090DF
:10056000D748827902232D21372009F0D8FBD5A066
:10057000182110230F22CDE900102D21502009F061
:1005800086FC18200090CE48C27902232D215F20DE
:1005900009F0C5FBCA48007A072853D2DFE800F00B
:1005A000040F1A25303C4700C7A018210B46C8226B
:1005B000CDE900104B21002009F069FC42E0C5A004
:1005C00018210B46C822CDE900104B21002009F06C
:1005D0005EFC37E0C2A018210B46C822CDE900100E
:1005E0004B21002009F053FC2CE0C0A018210B4641
:1005F000C822CDE900104B21002009F048FC21E081
:10060000BDA018210B46C822CDE900104B210020C7
:1006100009F03DFC16E062E0BAA018210B46C822A2
:10062000CDE900104B21002009F031FC0AE0B8A010
:1006300018210B46C822CDE900104B21002009F0FB
:1006400026FC00BF00BF182000909D4802780223BE
:100650006921002009F063FB96A0182110230A22CB
:10066000CDE900106921192009F011FC1820009033
:100670009348427802236921242009F050FB8DA081
:10068000182110230A22CDE9001069213D2009F02C
:10069000FEFB182000908A488278022369214820B6
:1006A00009F03DFB8648807906280EDB8448807976
:1006B00009280ADC99A0182110235022CDE9001046
:1006C0002D21E62009F0E3FB09E096A01821102374
:1006D0005022CDE900102D21E62009F0D8FB64203E
:1006E00009F081FE1CBD1CB50020684908804FF44C
:1006F000F0734FF4B472194609F0BCF94FF4D77394
:100700004FF4B4721946002009F0B4F94FF4BE73E7
:100710004FF4B4721946002009F0ACF94FF4784058
:100720005A4908804FF4A5734FF4B472194600205B
:1007300009F0A0F90020554908804FF4F0734022D9
:100740004FF4A571104609F095F94FF4F07380222B
:100750004FF4A571104609F08DF94FF4F073C022E3
:100760004FF4A571104609F085F94FF4F0734FF47A
:1007700080724FF4A571104609F07CF9182001230E
:100780001A464FF4AA710090192009F0C8FA1820EF
:10079000012302224FF4AA710090592009F0BFFAF8
:1007A0001820012303224FF4AA710090992009F028
:1007B000B6FA1820012304224FF4C37100901920C7
:1007C00009F0ADFA1820012305224FF4C3710090FF
:1007D000592009F0A4FA1820012306224FF4C3710E
:1007E0000090992009F09BFA1820012307224FF46A
:1007F000DC710090192009F092FA182001230822D8
:100800004FF4DC710090592009F089FA1820012377
:1008100009224FF4DC710090992009F080FA182029
:10082000012300224FF4AA710090D92009F077FA31
:100830003EA0182110233222CDE900104FF4C371DD
:10084000CD2009F024FB3AA0182110233222CDE953
:1008500000104FF4DC71CD2009F019FB36A01821EF
:1008600010233222CDE900104FF4AA7140F2051096
:1008700009F00DFB32A0182110233222CDE900101F
:100880004FF4C37140F205105EE000001C0100202F
:100890004C45445F436F6E74726F6C6C6572000000
:1008A0004050616E67626F00536561736F6E3A000E
:1008B0004C4544303A0000004D4F44453A0000009A
:1008C000020300202D00000053756E646179202022
:1008D000200000004D6F6E64617920202000000030
:1008E0005475657364617920200000005765646E5B
:1008F000657364617900000054687572736461798E
:100900002000000046726964617920202000000008
:1009100053617475726461792000000053756D6DC8
:100920006572000057696E7465720000534554008B
:100930004261636B000000004D6F64653100000090
:100940004D6F64653200000009F0A1FAFEA0182185
:1009500010233222CDE900104FF4DC7140F2051073
:1009600009F095FA4FF47840F9490880BE23E52252
:100970001946002009F07EF84FF4A573E522BE2148
:10098000104609F077F81CBDF8B54FF0FF36F14876
:1009900090F8200000F0800000287DD0ED4880898C
:1009A000ED490988884278DAEA48C08AEA494988E4
:1009B0008842F8DAE748C08AB0F5A57F6DDD0025EA
:1009C00097E0002484E0E3488189E448008800EB54
:1009D00084104030814279DADE488089DF49098815
:1009E00001EB8411884271DDDA48C18A05EBC5004C
:1009F00000EB0510DA4A128802EB400032308142E7
:100A000064DAD448C08A05EBC50101EB0511D44A6C
:100A1000128802EB4101884258DD4FF4FC6005EB7F
:100A2000C50707EB0517DFF838C30090BCF800C016
:100A30000CEB47073237BBB2C84F3F8807EB841730
:100A40004037BAB205EBC50707EB0517DFF810C34F
:100A5000BCF800C00CEB4707B9B2C04F3F8807EBAA
:100A60008417B8B208F078FF05EB850006190A2054
:100A700009F0B9FC4FF6FF7005EBC50707EB05174A
:100A8000DFF8DCC20090BCF800C00CEB470732373F
:100A9000BBB2B24F3F8801E031E02EE007EB841794
:100AA0004037BAB205EBC50707EB0517DFF8B0C250
:100AB000BCF800C00CEB4707B9B2A84F3F8807EB62
:100AC0008417B8B208F048FF05E0FFE7601C84B265
:100AD000052CFFF678AF00BF002E08DB182002239C
:100AE0003246C8210090322009F019F904E0681C50
:100AF00085B2032DFFF665AF00BF3046F8BD00BFDD
:100B0000FCE71CB597A018210B463C22CDE900104C
:100B10006921DC2009F0BBF91F208D49088092A0D3
:100B200010210B46C822CDE9001084210A2009F0CB
:100B3000AEF9002004F04CFC924908800846008879
:100B4000012807D19048006808B9012000E0002082
:100B50008D4908601CBD1CB58C48008841F2972166
:100B600088427BD00BF0BDFE88480BF0FFFE41F2BF
:100B7000972186480BF0CAFF85480BF0F7FE8548A1
:100B80000BF0F4FE84480BF0F1FE84480BF0EEFE0F
:100B900083480BF0EBFE83480BF0E8FE82480BF035
:100BA000E5FE82480BF0E2FE062179480BF0AEFF2D
:100BB000092178480BF0AAFF132177480BF0A6FF14
:100BC000052176480BF0A2FF1E2175480BF09EFF11
:100BD0001E2174480BF09AFF002173480BF096FF1A
:100BE000002172480BF092FF71480BF0BFFE714874
:100BF0000BF0BCFE70480BF0B9FE70480BF0B6FE6F
:100C00006F480BF0B3FE6F480BF0B0FE6E480BF070
:100C1000ADFE6E480BF0AAFE0C2165480BF076FF86
:100C2000022164480BF072FF122163480BF06EFF43
:100C3000062162480BF06AFF1E2161480BF066FF37
:100C40001E2160480BF062FF00215F480BF05EFF41
:100C500000215E480BF05AFF0BF04FFE0BF041FEF7
:100C60004B4800785A4908804A480078594908801A
:100C70004948007858490880484800785749088012
:100C8000474800785649088046480078554908800A
:100C900047480078544908804648007853490880FE
:100CA00045480078524908804448007851490880F6
:100CB0004348007850490880424800784F490880EE
:100CC0000BF01BFE1F20224908804DA010210B466F
:100CD0002822CDE9001084213C2009F0D8F84AA050
:100CE00010210B463C22CDE900108421732009F02D
:100CF000CEF848A010210B463222CDE900109621F3
:100D0000002009F0C4F81020022300903048028827
:100D10009621342009F003F8AFF2584010210B4619
:100D20000A22CDE900109621462009F0B0F81020E3
:100D300002230090274802889621512008F0EFFFF7
:100D400010200223009069E04D6F646533000000BD
:100D50001C010020E4000020F402002038000020E4
:100D60003A0000204B657900436F6E74726F6C20FF
:100D7000746865206C69676874206279206B657996
:100D8000000000001C0000209481214200000708A0
:100D90000010070800300708002006080030060889
:100DA00000400608005006080060060800700608AB
:100DB000002007080040070800200508003005084B
:100DC000004005080050050800600508007005088F
:100DD0000000002002000020040000200800002085
:100DE000060000200A0000200C0000200E00002059
:100DF0001000002014000020120000201600002027
:100E00006D6F6E7468000000657665727964617953
:100E10000000000073756D6D65723A00FE4802882F
:100E20009621692008F07BFFAFF2785010210B4625
:100E30000622CDE9001096217B2009F028F8102029
:100E400002230090F54802889621832008F067FF6E
:100E5000AFF2905010210B460822CDE900109621E8
:100E6000084609F014F8102002230090EC4802888C
:100E70009621A12008F053FFAFF2C85010210B4675
:100E80000622CDE900109621B32009F000F81020C9
:100E900002230090E34802889621BB2008F03FFF20
:100EA000E1A010210B463222CDE90010AC21002038
:100EB00008F0EDFF102002230090DD480288AC21ED
:100EC000342008F02CFFAFF2046010210B460A22F8
:100ED000CDE90010AC21462008F0D9FF10200223F4
:100EE0000090D4480288AC21512008F018FF10204F
:100EF00002230090D0480288AC21692008F00FFF3F
:100F0000AFF2506010210B460622CDE90010AC2153
:100F10007B2008F0BCFF102002230090C748028805
:100F2000AC21832008F0FBFEAFF2686010210B4675
:100F30000822CDE90010AC21962008F0A8FF10206F
:100F400002230090BE480288AC21A12008F0E7FEF1
:100F5000AFF2A06010210B460622CDE90010AC21B3
:100F6000B32008F094FF102002230090B5480288B7
:100F7000AC21BB2008F0D3FEB3A018210B463C22C5
:100F8000CDE900106921DC2008F081FF1CBDB048CC
:100F90008079B0490988884236DBAD488079AE490E
:100FA0000988884230DCAA4800789B490988884231
:100FB00005DCA74800789A490988884202DA0120AE
:100FC000A6490860A248007893490988884208D158
:100FD0009F48407892490988884202DC01209F4955
:100FE00008609B4800788E490988884209D1984852
:100FF000407899490988884203DB012097490860B5
:1010000002E0002095490860914880798849098864
:10101000884236DB8E48807986490988884230DCF0
:101020008B48007884490988884205DC8848007824
:1010300083490988884202DA012088490860844887
:1010400000787D490988884208D1814840787C49E8
:101050000988884202DC0120804908607C480078C9
:1010600077490988884209D17948407871490988C7
:10107000884203DB01207949086002E000207749BB
:10108000086070471CB576A018210B463C22CDE9BC
:1010900000106921DC2008F0FAFE1F207149088049
:1010A00003F00DFF7049088070A010210B46C82284
:1010B000CDE9001084210A2008F0E9FE72A0102179
:1010C0000B466422CDE9001096210A2008F0DFFECD
:1010D0001020009003230190634802889621782015
:1010E00008F067FE6BA010210B467D22CDE90010B1
:1010F000AA210A2008F0CBFE1020009003230190C3
:1011000069480288AA21872008F053FE56480088C3
:1011100065490988884203DB01205049086002E0E4
:1011200000204E4908601CBD38B5044600204D49DA
:1011300008804FF4A0734FF496721946E62008F029
:1011400099FC4FF49B734FF482724FF4A071E62028
:1011500008F090FC4FF49B734FF487724FF4A0712A
:101160004FF4967008F086FCE6234FF482724FF439
:101170009B71104608F07EFCE6234FF487724FF413
:101180009B71104608F076FCDC234FF48C72E6214C
:101190004FF4877008F06EFCDC23FA22E6214FF44E
:1011A000827008F067FCB923FA22DC21104608F0AF
:1011B00061FCB9234FF48C72DC21104608F05AFC14
:1011C000AA2340F20912B921FA2008F053FCAA23FD
:1011D00040F20912B9214FF48C7008F04BFCB9238E
:1011E0004FF48C721946FA2008F044FCDC234FF4CB
:1011F0008C721946FA2008F03DFCE6234FF4877202
:1012000019464FF4827008F035FC012C56D14FF688
:10121000E070DB234AE0000004000020060000200C
:10122000080000200A00002077696E7465723A0099
:101230000C0000200E0000201000002012000020F2
:1012400014000020160000204175746F000000009B
:1012500002030020000000200200002094812142AF
:10126000456E76001C0100201E000020436F6E7446
:10127000726F6C20746865206C696768742062798D
:10128000206C73656E7300004C6967687420536549
:101290006E733A004C6967687420536872657368AE
:1012A0006F6C643A000000002000002040F217122A
:1012B000BA210090FB2008F04FFB09E04FF6FF70C9
:1012C000DB2340F21712BA210090FB2008F044FB08
:1012D00038BD1CB50BF005FB0BF003FBFA4800789A
:1012E000FA4908800BF009FB0120F9490860F7482A
:1012F0000088012802D1FFF704FC0EE0F3480088C3
:10130000022804D1FFF727FCFFF741FE05E0EF4874
:101310000088032801D1FFF7B5FEEE4800680128D8
:101320001BD14FF6FF7069234FF4A0724B21009040
:10133000FA2008F011FB4FF47840E7490880E7A055
:1013400018210B463C22CDE900104B21FA2008F071
:101350009EFD0020FFF7E8FE1DE0DE480068D0B9E2
:101360004FF6FF7069234FF4A0724B210090FA20D2
:1013700008F0F2FA4FF47840D7490880D8A0182135
:101380000B463C22CDE900104B21FA2008F07FFDEE
:101390000120FFF7C9FE1CBD00B589B04FF0FF303A
:1013A0000690D04840680590002005998847CD48B0
:1013B00090F8200000F0800000287DD0C948808986
:1013C000C9490988884277DAC648C08AC649498827
:1013D0008842F8DAC348C08AB0F5A57F6CDD0020EA
:1013E0000890ADE00020079099E0BE488189BF4A8F
:1013F0001288079802EB8010403081427EDAB948AB
:101400008189BA4A1288079802EB8010814275DD03
:10141000B448C18A089800EBC00202EB0010B44A3D
:10142000128802EB40003230814274DAAD48C18A42
:10143000089800EBC00202EB0010AD4A128802EBE4
:101440004000814267DD4FF4FC600090089800EB9B
:10145000C00101EB0010A649098801EB40003230C1
:1014600080B20590A1490988079801EB80104030AF
:1014700080B20490089800EBC00101EB00109C4979
:10148000098801EB400080B20390984909880798C9
:1014900001EB801080B2029003A90EC908F05CFA3B
:1014A000089800EB80010798084406900A2008F08D
:1014B0009AFF4FF6FF7000E047E00090089800EBBD
:1014C000C00101EB00108A49098801EB400032306D
:1014D00080B2059085490988079801EB801040305B
:1014E00080B20490089800EBC00101EB0010804925
:1014F000098801EB400080B2039000E00BE07B49DB
:101500000988079801EB801080B2029003A90EC9E8
:1015100008F022FA07E00798401C80B2079007986D
:101520000528FFF662AF00BF0698002804DB4FF4E1
:1015300078406949088007E00898401C80B208900C
:1015400008980328FFF64EAF00BF06980028C1F2A6
:101550007C820698042821D14FF6FF7082234FF435
:10156000917269210090DC2008F0F6F94FF6FF70C7
:10157000C3234FF4B47284210090002008F0ECF9EA
:101580000120524908800BF0ACF94F480BF0EEF9FE
:101590004E4801884C480BF0B9FAF9E00698092842
:1015A00021D14FF6FF7082234FF491726921009090
:1015B000DC2008F0D1F94FF6FF70C3234FF4B4726A
:1015C00084210090002008F0C7F902203F490880DC
:1015D0000BF087F93C480BF0C9F93C4801883A48C0
:1015E0000BF094FAD4E006980E2821D14FF6FF7044
:1015F00082234FF4917269210090DC2008F0ACF94D
:101600004FF6FF70C3234FF4B47284210090002082
:1016100008F0A2F903202D4908800BF062F92A484E
:101620000BF0A4F92948018827480BF06FFAAFE0C6
:101630000698082803D101202E490880A8E02D48EB
:101640000088012811D1069878B92B48008860B924
:101650002A48008848B92A48008830B929480088B3
:1016600018B901202449088092E022480088012806
:1016700012D1069801280FD11F48008860B91F4871
:10168000008848B91E48008830B91E48008818B93B
:1016900001201A4908807BE016480088012833D1D0
:1016A0000698022830D11448008860B91348008891
:1016B00048B91348008830B91248008818B9012089
:1016C0000F49088064E01FE0001004081A000020A1
:1016D00094012342948121421C0100204F46460080
:1016E0004F4E0000E4000020F402002038000020EB
:1016F0003A000020240000202600002028000020BE
:101700002A0000202C000020FD480088012812D16A
:10171000069805280FD1FB48008860B9FA48008870
:1017200048B9FA48008830B9F948008818B901204A
:10173000F74908802CE006980D2829D1F148008847
:1017400001280BD0F0480088012807D0EF48008816
:10175000012803D0EE480088012819D14FF6FF7008
:101760004FF4A573E522BE210090002008F0F4F8A4
:101770000120E34908800020E2490880E24908800E
:10178000E2490880E2490880E2490880E24908808D
:10179000DB480088012846D1DA480088F0BBDA48E7
:1017A0000088D8BBD9480088C0BBD9480088A8BBEE
:1017B0001F20DA490880DAA010210B466422CDE907
:1017C0000010D2210A2008F062FBD8A010210B469D
:1017D0006422CDE90010E6210A2008F058FBD5A0CC
:1017E00010210B466422CDE90010FA210A2008F0EE
:1017F0004EFBD3A010210B466422CDE900104FF41C
:1018000087710A2008F043FBD0A010210B46642208
:10181000CDE900104FF491710A2000E003E008F0D8
:1018200036FB01F012B9B6480088012839D1B54815
:101830000088012835D1B748008888BB0020B64908
:1018400008800121B34801804FF6FF704FF4A57363
:10185000E522BE210090002008F07EF81F20AF494D
:101860000880BDA010210B466422CDE90010D221D2
:101870000A2008F00CFBBDA010210B466422CDE924
:101880000010E6210A2008F002FBBDA010210B4643
:101890006422CDE90010FA210A2008F0F8FAC0E726
:1018A000FFE79748008801287ED1964800880128E4
:1018B000FAD1984800880128F6D10698042873D0F8
:1018C00006980828FBD006980928F8D006980D2815
:1018D000F5D006980E28F2D00020AB490860089099
:1018E000AA49069851F82000A9498B4A128841F864
:1018F000220089480088401C874908801F208749AA
:101900000880A4A010210B468222CDE900104FF4DC
:1019100096710A2008F0BBFA7F480088042853DC3F
:10192000A0A010210B463222CDE900104FF48771A0
:101930000A2008F0ACFA002008900FE094490898BB
:1019400051F820009049096801EB810100EB41004A
:101950008D4908600898401C80B208906E4909883B
:1019600008988842EADB10200423009086484FF450
:1019700087710268502008F0D2F96748008804286F
:101980008DD1814800688949086000207E4908603F
:101990004FF6FF704FF49173E4224FF4877100907B
:1019A000282007F0D9FF00E039E281A010210B4682
:1019B0003222CDE900104FF487710A2008F067FA4F
:1019C000322008F010FD2CE75348008804284CDD35
:1019D00051480088062848DC0020089010E06C4937
:1019E0000898001D51F820006749096801EB810142
:1019F00000EB4100644908600898401C80B20890E0
:101A000045480088001F08998842E8DC102002231E
:101A100000905D484FF487710268502008F07FF90C
:101A20003D4800880628CED1322008F0DCFC56481C
:101A30000068614908600020534908604FF6FF7054
:101A40004FF49173E4224FF487710090282007F03F
:101A500083FF5AA010210B463222CDE900104FF42B
:101A600087710A2008F013FADBE62B480088062865
:101A700045DD29480088082841DC0020089010E056
:101A800043490898801D51F820003F49096801EB3F
:101A9000810100EB41003C4908600898401C80B27D
:101AA00008901D480088801F08998842E8DC1020B3
:101AB0000223009034484FF487710268502008F0E8
:101AC0002EF9154800880828CED1322008F08BFC6A
:101AD0002D4800683B49086000202B4908604FF6FC
:101AE000FF704FF49173E4224FF487710090282027
:101AF00007F032FF34A010210B46322268E06FE07D
:101B00002400002026000020280000202A000020B9
:101B10002C00002044000020460000201C01002072
:101B200053657474696E673A00000000312E446199
:101B300074650000322E4B65794D6F6465000000BE
:101B4000332E4175746F4D6F64650000342E4C73F5
:101B5000656E4D6F64650000446174612073657447
:101B600074696E67206C696B653A00002A2A2A2A1C
:101B70002D2A2A2D2A2A202A2A3A2A2A0000000061
:101B8000696E7075743A00003C0000204800002027
:101B90007C0200206265696E67207365742E2E2EAC
:101BA00000000000796561723A00000084000020A6
:101BB0006D6F7574683A0000880000206461793A9E
:101BC000000000008C000020686F75723A00000071
:101BD000CDE900104FF487710A2008F058F920E68B
:101BE000FE48008808284CDDFC4800880A2848DCAC
:101BF0000020089010E0FA490898083051F82000B9
:101C0000F849096801EB810100EB4100F5490860E2
:101C10000898401C80B20890F0480088083808995D
:101C20008842E8DC102002230090EE484FF48771D0
:101C30000268502008F073F8E84800880A28CED1DE
:101C4000322008F0D0FBE7480068E7490860002030
:101C5000E44908604FF6FF704FF49173E4224FF4AB
:101C600087710090282007F077FEE0A010210B4636
:101C70003222CDE900104FF487710A2008F007F9ED
:101C8000CFE5D64800880A284CDDD44800880C28C7
:101C900048DC0020089010E0D14908980A3051F83B
:101CA0002000D049096801EB810100EB4100CD49DA
:101CB00008600898401C80B20890C84800880A381C
:101CC00008998842E8DC102002230090C5484FF4B0
:101CD00087710268502008F022F8C04800880C285C
:101CE000CED1322008F07FFBBE480068C1490860B1
:101CF0000020BC4908604FF6FF704FF49173E42256
:101D00004FF487710090282007F026FEBAA010211A
:101D10000B463222CDE900104FF487710A2008F0FB
:101D2000B6F87EE5AD4800880C28A9DDAB480088F0
:101D30000E28A5DC0020089010E0A94908980C3076
:101D400051F82000A749096801EB810100EB41002F
:101D5000A44908600898401C80B208909F480088F9
:101D60000C3808998842E8DC1020022300909D4836
:101D70004FF487710268502007F0D1FF9748008820
:101D80000E28CED1322008F02EFB00209349088087
:101D9000944800689A49086000209A49088091494F
:101DA00008604FF6FF704FF49173E4224FF487718F
:101DB00000900A2007F0D0FD93A010210B4682224C
:101DC000CDE900104FF496710A2008F060F8012167
:101DD000084609F0B5FD09F00FFE09F0BEFD47F613
:101DE000FF7009F0E3FD09F007FE8548007881499E
:101DF0000978CDE900107C48007805908648007885
:101E000004908648007803908548008880B202904C
:101E100003A90EC908F04DF909F0A8FD01E58148B4
:101E2000008801283AD180480088012836D17548B9
:101E3000008890BB00206949088001207149088012
:101E40004FF6FF704FF4A573E522BE2100900020ED
:101E500007F082FD1F207549088075A010210B46F0
:101E6000B422CDE90010D2210A2008F010F875A0A4
:101E700010210B468222CDE90010E6210A2008F04D
:101E800006F8AFF2043010210B466422CDE90010B1
:101E9000FA210A2007F0FBFFC3E4FFE7614800884E
:101EA0000128BBD1604800880128B7D15548008877
:101EB0000128B3D106980428B0D006980828ADD0E0
:101EC00006980928AAD006980D28A7D006980E28AB
:101ED000A4D0424800881828A0DC002041490860AE
:101EE00008905D49069851F820003D493B4A128808
:101EF00041F8220039480088401C384908801F20DA
:101F00004A490880AFF2743010210B468222CDE995
:101F100000104FF496710A2007F0B9FF2F4800888F
:101F2000022859DC4DA010210B469622CDE9001065
:101F30004FF487710A2007F0AAFF002008900FE0F5
:101F40002749089851F820002649096801EB8101CA
:101F500000EB4100234908600898401C80B20890BB
:101F60001E49098808988842EADB10200223009065
:101F70001C484FF487710268BE2007F0D0FE174856
:101F80000088022888D11748006839490860002075
:101F9000144908604FF6FF704FF49173E4224FF438
:101FA00087710090BE2007F0D7FC4FF6FF704FF40A
:101FB0009173AA224FF4877100900A2007F0CCFC9D
:101FC0002CA010210B469622CDE900104FF487710A
:101FD0000A2007F05CFF57E05AE0000046000020AE
:101FE0007C0200203C000020900000206D696E758E
:101FF00074653A00940000207365636F6E643A0064
:1020000098000020440000206861766520626565C4
:102010006E207365742100008C0000208800002071
:1020200084000020240000202A0000201C01002041
:102030004175746F5F6D6F64652073657474696E4C
:10204000673A00002A2A2A2A2A2A2A2A2A2A2A2AF7
:102050002A2A2A2A000000004800002073756D6DAE
:1020600065725F6D6F6E746820626567696E3A00B5
:102070009C00002073756D6D65725F6D6F6E746886
:1020800020656E643A000000322008F0ACF906E4E6
:10209000FE480088022857DDFC480088042853DCED
:1020A0000020089010E0FA490898801C51F82000A0
:1020B000F849096801EB810100EB4100F54908602E
:1020C0000898401C80B20890F0480088801E08994B
:1020D0008842E8DC102004230090EE484FF487711A
:1020E0000268BE2007F01BFEE84800880428CED115
:1020F000E8480068E84908600020E64908604FF6B3
:10210000FF704FF49173E4224FF487710090BE206A
:1021100007F022FC4FF6FF704FF49173AA224FF4A0
:10212000877100900A2007F017FCDCA010210B46F5
:10213000A022CDE900104FF487710A2007F0A7FE16
:10214000322008F050F910E2D0480088042857DD0A
:10215000CE480088062853DC0020089010E0CC49C7
:102160000898001D51F82000CA49096801EB810157
:1021700000EB4100C74908600898401C80B20890F5
:10218000C2480088001F08998842E8DC1020042318
:102190000090C0484FF487710268BE2007F0BFFD71
:1021A000BA4800880628CED1BA480068C0490860FD
:1021B0000020B84908604FF6FF704FF49173E42295
:1021C0004FF487710090BE2007F0C6FB4FF6FF70FA
:1021D0004FF49173AA224FF4877100900A2007F000
:1021E000BBFBB4A010210B46A022CDE900104FF498
:1021F00087710A2007F04BFE322008F0F4F8B4E1B2
:10220000A2480088062857DDA0480088082853DC2B
:102210000020089010E09E490898801D51F8200089
:102220009C49096801EB810100EB41009949086074
:102230000898401C80B2089094480088801F089934
:102240008842E8DC10200423009092484FF4877104
:102250000268BE2007F063FD8C4800880828CED1B4
:102260008C4800689949086000208A4908604FF648
:10227000FF704FF49173E4224FF487710090BE20F9
:1022800007F06AFB4FF6FF704FF49173AA224FF4E8
:10229000877100900A2007F05FFB8DA010210B468C
:1022A0009622CDE900104FF487710A2007F0EFFD68
:1022B000322008F098F8C8E374480088082857DDF1
:1022C000724800880A2853DC0020089010E070490A
:1022D0000898083051F820006E49096801EB810127
:1022E00000EB41006B4908600898401C80B20890E0
:1022F00066480088083808998842E8DC10200423E2
:10230000009064484FF487710268BE2007F007FD13
:102310005E4800880A28CED15E480068714908608E
:1023200000205C4908604FF6FF704FF49173E4227F
:102330004FF487710090BE2007F00EFB4FF6FF7040
:102340004FF49173AA224FF4877100900A2007F08E
:1023500003FB65A010210B469622CDE900104FF437
:1023600087710A2007F093FD322008F03CF86CE3F7
:10237000464800880A2857DD444800880C2853DC6A
:102380000020089010E0424908980A3051F82000D7
:102390004049096801EB810100EB41003D490860BB
:1023A0000898401C80B20890384800880A3808997C
:1023B0008842E8DC10200423009036484FF48771EF
:1023C0000268BE2007F0ABFC304800880C28CED154
:1023D000304800684949086000202E4908604FF6DF
:1023E000FF704FF49173E4224FF487710090BE2088
:1023F00007F0B2FA4FF6FF704FF49173AA224FF430
:10240000877100900A2007F0A7FA3DA010210B4623
:10241000A022CDE900104FF487710A2007F037FDA4
:10242000322007F0E0FF10E3184800880C2871DD27
:10243000164800880E286DDC0020089010E0144932
:1024400008980C3051F820001249096801EB81010D
:1024500000EB41000F4908600898401C80B20890CA
:102460000A4800880C3808998842E8DC10200423C8
:10247000009008484FF487710268BE2007F04FFCB7
:10248000024800880E28CED1024844E046000020D1
:102490007C0200203C000020A000002073756D6DC0
:1024A00065725F686F757220626567696E3A0000D9
:1024B000A400002073756D6D65725F6D696E757433
:1024C0006520626567696E3A00000000AC0000207C
:1024D00073756D6D65725F686F757220656E643AB5
:1024E00000000000A800002073756D6D65725F6DBF
:1024F000696E75746520656E643A0000B000002056
:1025000077696E7465725F6D6F6E7468206265675F
:10251000696E3A002AE00068FE4908600020FE4922
:1025200008604FF6FF704FF49173E4224FF4877107
:102530000090BE2007F010FA4FF6FF704FF4917331
:10254000AA224FF4877100900A2007F005FAF3A041
:1025500010210B46A022CDE900104FF487710A200C
:1025600007F095FC322007F03EFF6EE2F04800884D
:102570000E2857DDEE480088102853DC0020089014
:1025800010E0EC4908980E3051F82000E249096843
:1025900001EB810100EB4100DF4908600898401C15
:1025A00080B20890E24800880E3808998842E8DC3A
:1025B000102004230090D8484FF487710268BE2091
:1025C00007F0ADFBDA4800881028CED1D248006869
:1025D000D94908600020D04908604FF6FF704FF4D9
:1025E0009173E4224FF487710090BE2007F0B4F994
:1025F0004FF6FF704FF49173AA224FF48771009049
:102600000A2007F0A9F9CDA010210B46A022CDE9A0
:1026100000104FF487710A2007F039FC322007F0D0
:10262000E2FE12E2C2480088102857DDC048008848
:10263000122853DC0020089010E0BE4908981030A2
:1026400051F82000B449096801EB810100EB410019
:10265000B14908600898401C80B20890B4480088CE
:10266000103808998842E8DC102004230090AA481A
:102670004FF487710268BE2007F051FBAC48008818
:102680001228CED1A4480068B14908600020A249B0
:1026900008604FF6FF704FF49173E4224FF4877196
:1026A0000090BE2007F058F94FF6FF704FF4917379
:1026B000AA224FF4877100900A2007F04DF9A5A0D7
:1026C00010210B46A022CDE900104FF487710A209B
:1026D00007F0DDFB322007F086FEB6E19448008863
:1026E000122857DD92480088142853DC00200890F7
:1026F00010E090490898123051F820008649096886
:1027000001EB810100EB4100834908600898401CFF
:1027100080B2089086480088123808998842E8DC20
:102720001020042300907C484FF487710268BE207B
:1027300007F0F5FA7E4800881428CED17648006864
:10274000894908600020744908604FF6FF704FF413
:102750009173E4224FF487710090BE2007F0FCF8DB
:102760004FF6FF704FF49173AA224FF487710090D7
:102770000A2007F0F1F87DA010210B46A022CDE938
:1027800000104FF487710A2007F081FB322007F018
:102790002AFE5AE166480088142857DD64480088FC
:1027A000162853DC0020089010E062490898143085
:1027B00051F820005849096801EB810100EB410004
:1027C000554908600898401C80B208905848008815
:1027D000143808998842E8DC1020042300904E4801
:1027E0004FF487710268BE2007F099FA50480088BC
:1027F00016282AD1484800686149086000204649E7
:1028000008604FF6FF704FF49173E4224FF4877124
:102810000090BE2007F0A0F84FF6FF704FF49173C0
:10282000AA224FF4877100900A2007F095F849A07A
:1028300010210B46A022CDE900104FF487710A2029
:1028400007F025FB322007F0CEFDFEE03848008877
:1028500016285DDD36480088182859DC00200890CD
:1028600010E034490898163051F820002A490968C8
:1028700001EB810100EB4100274908600898401CEA
:1028800080B208902A480088163808998842E8DC07
:1028900010200423009020484FF487710268BE2066
:1028A00007F03DFA22480088182831D11A480068FC
:1028B000344908600020184908604FF6FF704FF453
:1028C0009173E4224FF487710090BE2007F044F822
:1028D0004FF6FF704FF49173E4224FF4877100902C
:1028E000BE2007F039F8322007F07DFDAFF6E80092
:1028F00010210B468222CDE900104FF496710A2078
:1029000007F0C5FA09F0EDFF1F480AF02FF83DE087
:102910009BE00000B40000203C00002077696E744A
:1029200065725F6D6F6E746820656E643A000000BA
:10293000460000207C020020B800002077696E74F9
:1029400065725F686F757220626167696E3A000038
:10295000BC00002077696E7465725F6D696E757476
:102960006520656E643A0000C400002077696E74CB
:1029700065725F686F757220656E643A00000000D2
:10298000C0000020C8000020001007084C4809F0D3
:10299000EDFF4C4809F0EAFF4B4809F0E7FF4B48D0
:1029A00009F0E4FF4A4809F0E1FF4A4801684A4853
:1029B0000AF0ACF84948016841480AF0A7F84848CD
:1029C000016840480AF0A2F8464801683E480AF00B
:1029D0009DF8454801683D480AF098F84348016869
:1029E0003B480AF093F8424809F0C0FF414809F01B
:1029F000BDFF414809F0BAFF404809F0B7FF404821
:102A000009F0B4FF3F4809F0B1FF3F48016838487A
:102A10000AF07CF83D48016836480AF077F83C48EF
:102A2000016835480AF072F83A48016833480AF0FC
:102A30006DF83948016832480AF068F8374801688B
:102A400030480AF063F809F058FF059809B000BD56
:102A500010B54FF0FF34FDF719FDFDF744FEFEF70A
:102A600038FCFEF799FC10BD10B507F07FFC4FF461
:102A7000A06007F0A5FD4FF4E13007F0F0FC02F094
:102A800067FC03F0B2FB264800682649B0FBF1F072
:102A9000C4B2254841682046884707F066FB02F02B
:102AA000FBF900202149086002F078FC2049086801
:102AB000804741F61F41092002F068F8002010BD50
:102AC000003007080020060800300608004006080D
:102AD000005006089C00002000100708A0000020FD
:102AE000A4000020A8000020AC000020B0000020BE
:102AF00000200708004007080020050800300508EE
:102B00000040050800500508B4000020B80000206F
:102B1000BC000020C0000020C4000020C80000202D
:102B2000CC00002040420F0088010020300000202F
:102B3000E4000020704700BFFEE700BFFEE700BFD3
:102B4000FEE700BFFEE77047704770477047000020
:102B50000CB50020019000906C48006840F4803073
:102B60006A49086000BF6948006800F400300090BE
:102B70000198401C0190009818B90198B0F5A06F19
:102B8000F1D16248006800F4003010B101200090DB
:102B900001E0002000900098012843D15C480068C3
:102BA00040F010005A4908600846006820F0030011
:102BB00008600846006840F002000860534840681A
:102BC000524948600846406848600846406840F4FA
:102BD000806048600846406820F47C1048600846E1
:102BE000406840F4E81048600846006840F0807093
:102BF000086000BF4548006800F000700028F9D068
:102C00004248406820F00300404948600846406858
:102C100040F00200486000BF3C48406800F00C00F3
:102C20000828F9D10CBD10B5FFF792FF10BD10B503
:102C30003648006840F001003449086008464068A2
:102C40003449084031494860084600683249084024
:102C50002E4908600846006820F480200860084675
:102C6000406820F4FE0048604FF41F008860FFF7C2
:102C7000DAFF4FF000602949086010BD10B500214F
:102C800000200022214B5B6803F00C0121B10429D4
:102C900006D0082928D107E0214B224C236027E0E9
:102CA0001F4B204C236023E0184B5B6803F470102B
:102CB000164B5B6803F48032022303EB904022B989
:102CC000194B4343174C23600DE0104B5B6803F432
:102CD000003323B1144B4343124C236003E0104BE9
:102CE0004343104C236003E00D4B0E4C236000BFA8
:102CF00000BF064B5B68C3F303130C4CE15C094B4C
:102D00001B68CB40074C236010BD00000010024040
:102D1000002002400000FFF8FFFFF6FE08ED00E093
:102D200000127A00CC00002000093D00D0000020F5
:102D300010B5052007F033FB10BD08B50121882030
:102D400008F096FB0220ADF8000010208DF803007B
:102D500003208DF802006946904808F067F80221C8
:102D60008E4808F010F94FF40070ADF80000694685
:102D70008B4808F05BF84FF40071894808F003F9BC
:102D800008BD10B58648001D006820F0F000844999
:102D9000091D08600846006840F030000860012006
:102DA000804908608049C1F884011E2007F0F7FAC5
:102DB00000207C490860FFF7BBFF00207A49C1F87A
:102DC000840110BD10B57648001D006820F0F000A9
:102DD0007349091D08600846006840F0300008602B
:102DE0000120724908601E2007F0D9FA00207049BE
:102DF000C1F8A401FFF79CFF01206A49086010BDDB
:102E000010B500246648001D006820F0F0006449F9
:102E1000091D08600846006840F080000860012035
:102E2000604908606049C1F88401FFF781FF09E04B
:102E3000601CC4B2FA2C03DDFFF7C4FF012010BDF3
:102E4000FFF776FF5748803800680028F0D15749CF
:102E5000086000BFF3E710B50020544908605048EF
:102E6000001D006820F0F0004D49091D086008466B
:102E7000006840F030000860FFF75AFF00204C491E
:102E8000C1F8A401FFF754FF012048490860FFF78B
:102E90004FFF00204449C1F8840110BD10B5002047
:102EA000424908603E48001D006820F0F0003C499F
:102EB000091D08600846006840F030000860FFF710
:102EC00037FF01203A49C1F8A401FFF731FF012083
:102ED00036490860FFF72CFF00203349C1F8840110
:102EE00010BD70B504462E48001D006820F0F000AB
:102EF0002B49091D08600846006840F03000086052
:102F000000202A490860FFF713FF002511E0E009BF
:102F1000244908606006040E01202349C1F8840199
:102F2000FFF706FF002021490860FFF701FF681C3A
:102F3000C5B2082DEBDB70BD70B5054600241848FE
:102F4000001D006820F0F0001549091D08600846C2
:102F5000006840F0800008601E2007F020FA00267C
:102F600012E0002011490860FFF7E2FE01200E493F
:102F7000C1F884016006040E0A488038006808B170
:102F8000601CC4B2701CC6B2082EEADB15B9FFF78C
:102F900085FF01E0FFF75FFF204670BD000C014098
:102FA000001C0140A48123420080214284812142EF
:102FB000008023422DE9F04105460E4617464FF0AA
:102FC0000008FFF7DEFE7020FFF78BFFFFF718FF0A
:102FD000E8B2FFF786FFFFF713FF00240BE0305D38
:102FE000FFF77FFFFFF70CFF8046B8F1000F00D01E
:102FF00003E0601CC4B2BC42F1DB00BFFFF7E2FE9D
:103000004046BDE8F0812DE9F04106460F461546E1
:10301000FFF7B7FE7020FFF764FFFFF7F1FEF0B295
:10302000FFF75FFFFFF7ECFEFFF7ABFE7120FFF746
:1030300058FFFFF7E5FE00240BE0691EA14201D016
:10304000012100E000210846FFF776FF3855601C9B
:10305000C4B2AC42F1DBFFF7B5FEBDE8F0811CB5B0
:103060000121802008F004FA4FF40060ADF8000060
:1030700010208DF8030003208DF802006946924865
:1030800007F0D4FE0221904807F07DFF4FF48060E6
:10309000ADF8000048208DF8030069468A4807F023
:1030A000C5FE4FF48061884807F06DFFFFF745FECD
:1030B000002086490860142007F095F90120844912
:1030C000C1F8AC01322007F08EF900208DF8040021
:1030D000012201A9FFF76EFF012201A9A420FFF739
:1030E00069FF16208DF80400012201A98020FFF756
:1030F00061FF0C208DF80400012201A98820FFF750
:1031000059FF022201A9A120FFF77DFF9DF80400CD
:1031100030280ED19DF8050003280AD19DF805003E
:103120009DF8042000EB02216AA00AF04BFF00206A
:103130001CBD0120FCE771B581B000240026684861
:103140000078401C66490870084600780A2190FB08
:10315000F1F201FB120018B1614800780A2866DA22
:10316000012201A90220FFF74EFF9DF8040000F0A4
:103170000F0000287ED09DF8040000F00F00062804
:1031800078DA9DF8040000F00F01FF208840C5B2F6
:10319000E843C0B240F0C000524981F8200000244A
:1031A0005AE0504890F820000121A1400840E8B3BF
:1031B0004D4931F8140004226946FFF724FF4948BD
:1031C00090F8300000F00100C0B19DF801009DF8BA
:1031D000001001F00F0100EB01204249163121F8E7
:1031E00014009DF803009DF8021001F00F0100EBA0
:1031F00001213C480C3020F814101DE09DF801001E
:103200009DF8001001F00F0100EB0120C0F5F070F7
:1032100081B234480C3020F814109DF803009DF85A
:10322000021001F00F0100EB012101E012E021E0AA
:103230002C48163020F814109DF8000000F0F00023
:10324000802807D000212748163020F814100A38AB
:1032500020F81410601CC4B2052CA2DB0126214802
:10326000808920B91F48C08A08B900200190002039
:103270001B4908709DF8040000F01F00D0B91948E0
:1032800090F8200000F0800040B1164890F820002F
:1032900020F08000134981F820000BE04FF6FF700A
:1032A00010498881C882084690F8200000F0E000AC
:1032B00081F820000A480078F02802DD0A20084939
:1032C000087030467CBD0000001C0140AC812342E8
:1032D000008023424354502049443A25780D0A0087
:1032E000E0000020E40000201EF700082DE9F04176
:1032F00004460E4617464FF00008FFF742FD28200F
:10330000FFF7EFFDFFF77CFD2012FFF7EAFDFFF767
:1033100077FDE0B2FFF7E5FDFFF772FD00250BE05A
:10332000705DFFF7DEFDFFF76BFD8046B8F1000F23
:1033300000D003E0681CC5B2BD42F1DB00BFFFF75F
:1033400041FD4046BDE8F08138B505460024002027
:103350008DF800008DF8015000BF09E09DF80000D5
:10336000E649095D0844C0B28DF80000601CC4B293
:10337000B82CF3D39DF80000C043401CC0B28DF8B8
:103380000000B822DD4948F24700FFF7AFFF0222F4
:10339000694648F2FF00FFF7A9FF002038BD2DE97C
:1033A000F04105460F461646FFF7EBFC2820FFF7D5
:1033B00098FDFFF725FD2812FFF793FDFFF720FD8D
:1033C000E8B2FFF78EFDFFF71BFDFFF7DAFC2920BF
:1033D000FFF787FDFFF714FD00240BE0711EA142EB
:1033E00001D0012100E000210846FFF7A5FD385576
:1033F000601CC4B2B442F1DBFFF7E4FCBDE8F0812D
:103400000EB50121802008F033F84FF40060ADF8CC
:10341000000010208DF8030003208DF8020069469B
:10342000B74807F003FD0221B54807F0ACFD4FF4A3
:103430008060ADF8000048208DF803006946B04870
:1034400007F0F4FC4FF48061AD4807F09CFDFFF7F6
:1034500074FC0020AB4908600A2006F0C4FF01207C
:10346000A949C1F8AC010A2006F0BDFF4FF4806005
:10347000ADF8000028208DF803006946A04807F049
:10348000D5FC4FF480619E4807F07FFD642006F074
:10349000AAFF042201A948F24010FFF780FF002094
:1034A0008DF8080001A999A00AF08CFD9AA101A845
:1034B0000AF010FF40BB02208DF80400012201A990
:1034C00048F24000FFF712FF012201A948F247002D
:1034D000FFF765FF9DF80400602807DA9DF80410E7
:1034E0008FA00AF06FFD0120FFF72EFF0A2006F0E3
:1034F0007AFF00208DF80400012201A948F2400063
:10350000FFF7F4FE00200EBD0120FCE771B583B08B
:103510000024002687480078401C86490870084629
:1035200000780A2190FBF1F201FB120018B18148EA
:1035300000780A287EDA012203A948F24E10FFF72C
:103540002EFF9DF80C0000F0800068B19DF80C0083
:1035500000F00F00062807DA00200190012201A9DF
:1035600048F24E10FFF7C2FE9DF80C0000F00F006D
:1035700000285FD09DF80C0000F00F000628D9DA73
:103580009DF80C0000F00F01FF208840C0B20190B0
:10359000694890F820509DF80400C043C0B240F044
:1035A000C000654981F82000084681898182C18A6E
:1035B000C183002446E0604890F820000121A1402A
:1035C000084020B35D4931F81400042202A9FFF736
:1035D000E6FE594890F8300000F00100C0B19DF8B7
:1035E00008009DF8091000EB012081B25248163006
:1035F00020F814109DF80A009DF80B1000EB012034
:10360000C0F5487081B24C480C3020F8141017E017
:103610009DF808009DF8091000EB012081B2464892
:103620000C3020F814109DF80A009DF80B1000EBE8
:10363000012000E036E081B23F48163020F8141037
:10364000601CC4B2052CB6DB01263B4880893C498E
:103650000988884205DC3848C08A39494988884247
:103660001DDD9DF80C0000F00F0001280ADD324836
:10367000C089314988810846008BC88200202D49C5
:1036800008700FE02C48808A2B4988810846C08B3F
:10369000C88280200390084680F8205002E0002075
:1036A000244908709DF80C0000F08F0080281AD182
:1036B000214890F8200000F0800040B11E4890F8AA
:1036C000200020F080001C4981F820000BE04FF61C
:1036D000FF7019498881C882084690F8200000F0E0
:1036E000E00081F8200013480078F02802DD0A206D
:1036F00010490870304604B070BD000028F700087B
:10370000001C0140AC8123420080234243545020DE
:1037100049443A25730D0A0039313437000000005E
:1037200044656661756C74205665723A25640D0AAD
:1037300000000000E1000020E4000020E0F70008A5
:10374000F40200202DE9F04104460E4617464FF0E2
:103750000008FFF716FBB220FFF7C3FBFFF750FB93
:103760002012FFF7BEFBFFF74BFBE0B2FFF7B9FB00
:10377000FFF746FB00250BE0705DFFF7B2FBFFF79C
:103780003FFB8046B8F1000F00D003E0681CC5B2D3
:10379000BD42F1DB00BFFFF715FB4046BDE8F081FD
:1037A0002DE9F04105460F461646FFF7EAFAB2202A
:1037B000FFF797FBFFF724FB2812FFF792FBFFF7B9
:1037C0001FFBE8B2FFF78DFBFFF71AFBFFF7D9FAF3
:1037D000B320FFF786FBFFF713FB00240BE0711EFD
:1037E000A14201D0012100E000210846FFF7A4FB1F
:1037F0003855601CC4B2B442F1DBFFF7E3FABDE810
:10380000F08138B50446002000900CB18020009073
:10381000012269464FF45060FFF794FF38BD1CB594
:10382000002001900121802007F022FE4FF400606B
:10383000ADF8000010208DF8030003208DF8020081
:1038400069468D4807F0F2FA02218B4807F09BFB8E
:103850004FF48060ADF8000048208DF80300694601
:10386000854807F0E3FA4FF48061834807F08BFB4B
:10387000FFF763FA002081490860642006F0B3FD79
:1038800001207F49C1F8AC01642006F0ACFD0120A5
:10389000FFF7B7FF012201A94FF45060FFF780FF47
:1038A0009DF8041077A00AF08DFB9DF80400802895
:1038B00001D100201CBD0120FCE72DE9F14F82B0B1
:1038C0004FF0000AD34672480078401C70490870D7
:1038D000084600780A2190FBF1F201FB120018B1B2
:1038E0006B4800780A287DDA012202A90020FFF740
:1038F00057FF9DF8080000F01F00002872D09DF8C7
:10390000080000F01F0040F0C000624981F820006C
:103910004FF0000A76E05F4890F82000012101FA9C
:103920000AF10840002869D05B4931F81A000422E6
:1039300001A9FFF735FF574890F8300000F001006B
:1039400078B39DF807109DF8062001EB02200BF0DC
:1039500076F80646514A524B0BF0D8F804460BF065
:1039600041F881B24B48163020F81A109DF8051026
:103970009DF8042001EB02200BF061F80646494A4D
:10398000494B0BF0C3F880460022484B0BF0F2F98C
:1039900004460BF027F881B23E480C3020F81A108C
:1039A0002CE0FFE79DF807109DF8062001EB0220B0
:1039B0000BF045F80646394A394B0BF0A7F8044698
:1039C0000BF010F881B233480C3020F81A109DF833
:1039D00005109DF8042001EB02200BF030F806469C
:1039E000304A00E01EE0304B0BF090F804460AF03D
:1039F000F9FF81B22748163020F81A100AF10100A9
:103A000000F0FF0ABAF1050F85DB4FF0010B2148EA
:103A1000808920B91F48C08A08B900200290002080
:103A20001B4908709DF8080000F01F00D0B9194824
:103A300090F8200000F0800040B1164890F8200077
:103A400020F08000134981F820000BE04FF6FF7052
:103A500010498881C882084690F8200000F0E000F4
:103A600081F820000A480078F02802DD0A20084981
:103A700008705846BDE8FE8F001C0140AC8123420F
:103A8000008023424354502049443A25780D0A00CF
:103A9000E2000020E4000020EAF700087B14AE47B3
:103AA000E17AD43FD881734694F6D23F0000894032
:103AB00070B50446002500BF17E004F0800018B17F
:103AC0000120FE49086002E00020FC490860600611
:103AD000040E0020FA490860012006F060FC012075
:103AE000F849C1F88401681CC5B2082DE5DB70BD3A
:103AF00070B50646002500240020F1490860F2490F
:103B0000C1F8A401ED49083108603046FFF7D0FF45
:103B1000062006F044FC0020EA49C1F88401012097
:103B200006F03DFC0120E649086006F038FC002064
:103B3000E449C1F8840100BF15E04FF6FF7000EAC8
:103B400044040020DE490860012006F028FC012022
:103B5000DC49C1F88401DA487C38006808B1601C8F
:103B600084B2681CC5B2102DE7DB24110120D349B3
:103B700008310860204670BD2DE9FE4380460027CD
:103B8000002406E04046FFF7B3FF2DF81400601C48
:103B900084B2052CF6DB002416E0601C85B20FE031
:103BA0003DF814003DF81510884207DD3DF814601B
:103BB0003DF815002DF814002DF81560681C85B22D
:103BC000052DEDDB601C84B2042CE6DB002701240C
:103BD00005E03DF81400384487B2601C84B2042C20
:103BE000F7DB032097FBF0F086B23046BDE8FE839A
:103BF0002DE9F04104460D46B4480078FFF7BCFFBC
:103C00000646B3480078FFF7B7FF074626802F80A7
:103C10000120BDE8F0817FB504460D4602A903A846
:103C2000FFF7E6FF064616B9002004B070BD6946EE
:103C300001A8FFF7DDFF06460EB90020F5E7BDF845
:103C40000400BDF80C10884206DCBDF80C10BDF86D
:103C50000400323081420CDBBDF80C00BDF80410CA
:103C6000884236DCBDF80410BDF80C0032308142C9
:103C70002FDABDF80000BDF80810884206DCBDF858
:103C80000810BDF80000323081420CDBBDF808009E
:103C9000BDF8001088421CDCBDF80010BDF808001B
:103CA0003230814215DABDF80C10BDF804208818B6
:103CB00000EBD071C1F34F012180BDF80810BDF8B1
:103CC0000020881800EBD071C1F34F01298001203A
:103CD000ABE70020A9E770B504460D4616467D48BF
:103CE000068004F10D018AB2193988B22B462946A3
:103CF00005F0C0FE05F10D0083B2193881B22246ED
:103D0000204605F0B7FE6A1C91B2621C90B201F029
:103D100058FF6A1C91B2621E90B201F052FF6A1EF7
:103D200091B2621C90B201F04CFF6A1E91B2621E09
:103D300090B201F046FF06222946204605F010FF0A
:103D400070BD70B504460D46164662480680294689
:103D5000204601F036FF611C88B2294601F031FF90
:103D6000681C81B2204601F02CFF6A1C91B2621CD3
:103D700090B201F026FF70BD2DE9F04104464F4896
:103D80007C380068002856D12CB15349A1F10A00B3
:103D9000FFF741FF3DE05049A1F10A00FFF73BFF6B
:103DA000B8B34D491639B1F92C000BF04BFB07465F
:103DB0004949163988890BF05DFB8046464816381C
:103DC000416A40460BF06AFB064639460BF0DAF9C9
:103DD00005460BF017FB404916398881B1F92E00D2
:103DE0000BF030FB07463C491639C88A0BF042FB02
:103DF000804639481638816A40460BF04FFB06462C
:103E000039460BF0BFF905460BF0FCFA324916397A
:103E1000C8823148163890F8200000F0800038BB86
:103E2000C0202D49163981F82000084681898182F9
:103E3000C18AC1831CE02848163890F8200000F0A1
:103E4000800050B12448163890F8200020F08000FF
:103E50002149163981F820000AE000211E48163851
:103E60008182C1834FF6FF701B4916398881C88251
:103E70001948163890F8200000F08000BDE8F08165
:103E800010B50E2214490E31282000F06CFE0A21D4
:103E9000362000F017FE10BD10B5362000F0E6FD0C
:103EA00004460A2C2AD10E220B490E31282000F09C
:103EB00049FE0948163890F830000FE0A4812342EB
:103EC0008481214200802142008023421801002089
:103ED000190100201C010020FA00002030B19020C0
:103EE000FE490870D020FE49087005E0D020FB494B
:103EF00008709020FA490870012010BD0020FCE7EE
:103F00002DE9FC5F04460D4617461E46DDE90EAB63
:103F1000DDE90C894FF47840F2490880F2A01021C5
:103F2000CDE90010F14843880288A021282005F03F
:103F3000AEFFEFA01021CDE90010EC4843880288C5
:103F4000A021782005F0A3FFEAA01021CDE9001000
:103F5000E64843880288B421282005F098FFE6A0AF
:103F60001021CDE90010E14843880288B42178206F
:103F700005F08DFFE1A01021CDE90010DB4843885A
:103F80000288C821282005F082FFDDA01021CDE99C
:103F90000010D64843880288C821782005F077FFB2
:103FA000D8A01021CDE90010D04843880288DC2138
:103FB000282005F06CFFD4A01021CDE90010CB48DB
:103FC00043880288DC21782005F061FFCFA0102112
:103FD000CDE90010C54843880288F021282005F06B
:103FE00056FF102004232246A0210090402005F017
:103FF00096FE102004232A46A0210090902005F070
:104000008EFE102004233A46B4210090402005F093
:1040100086FE102004233246B4210090902005F043
:104020007EFE102004234246C8210090402005F067
:1040300076FE102004234A46C8210090902005F007
:104040006EFE102004235246DC210090402005F033
:1040500066FE102004235A46DC210090902005F0D3
:104060005EFE102003230090F0216020109A05F0DE
:1040700056FEBDE8FC9F00B597B0002012900B9053
:1040800012901F20974908804FF6FF70A1490880C1
:1040900002F079F84FF47840924908804FF6FF70AB
:1040A00002F071F800208F4908809B4800681021B9
:1040B0006423A022CDE900102821084605F0E7FE80
:1040C0004FF4784214210846FFF705FE002093497B
:1040D00081F820004862F2E3904840680A9001208D
:1040E0000A9988478D4890F8200000F0C0004028C9
:1040F0006FD100200B90894890F8200020F04000FC
:10410000864981F820000846818913AA129822F86E
:1041100020108248C18A129802EB800041801298D8
:10412000401CC0B212901298012806D0022815D067
:10413000032829D0042810D141E04FF6FF72142142
:104140000846FFF7C8FD69480088143880B24FF46C
:10415000784214210A90FFF7BEFDA0E3634800886F
:10416000143880B24FF6FF7214210A90FFF7B3FDA6
:104170005E484088143880B24FF4784201460A9075
:104180001420FFF7A8FD8AE358484088143880B20D
:104190004FF6FF7201460A901420FFF79CFD53482A
:1041A0004088143880B20A9050480088143880B291
:1041B0004FF4784209900A99FFF78DFD6FE3BDF83F
:1041C0004C00BDF85010401A0A90002802DB0A98F3
:1041D00002E065E30A9840420F90BDF84E1013A824
:1041E000C088081A0A90002801DB0A9801E00A98A2
:1041F00040420E900F9840430F900E9840430E900F
:10420000DDE90E10084405900AF030FCCDE9060106
:104210000AF086F9CDE908010AF0E4FB80B21190BA
:10422000BDF85400BDF85810401A0A90002801DB70
:104230000A9801E00A9840420F9013A84189C0896A
:10424000081A0A90002801DB0A9801E00A98404207
:104250000E900F9840430F900E9840430E90DDE96A
:104260000E10084405900AF001FCCDE906010AF0A1
:1042700057F9CDE908010AF0B5FB80B2109010980B
:104280000BF0F8F8099011980BF0F4F808900999E0
:104290000AF0DAFF0A900AF049FFCDE90C014FF06D
:1042A00066321F4BDDE90C010AF0F4FB0AD31D4A0C
:1042B0001D4BDDE90C010AF027FD03D3119808B16D
:1042C000109898BB0020129008484088143880B29B
:1042D0000A9006480088143880B228E018010020AF
:1042E000190100201C01002078313A00F40200205E
:1042F00079313A0078323A0079323A0078333A002C
:1043000079333A0078343A0079343A0066616320B0
:1043100069733A001E010020F4F70008E400002051
:104320006666EE3FCDCCCCCCCCCCF03F35E04FF642
:10433000FF7209900A99FFF7CEFC4FF478421421DE
:104340000846FFF7C8FC0022FE4BDDE90C010AF02D
:10435000DDFBCDE908010AF045FB80B213A90A9004
:10436000C989BDF8582013AB5B89CDE90132CDE98D
:104370000310BDF85400009013A8C0880990BDF840
:1043800050000890BDF84E000790BDF84C00069014
:1043900007A90EC9FFF7B4FD91E2BDF84C00BDF8C6
:1043A0005410401A0A90002801DB0A9801E00A988C
:1043B00040420F90BDF84E1013A84089081A0A9089
:1043C000002801DB0A9801E00A9840420E900F98FD
:1043D00040430F900E9840430E90DDE90E100844C4
:1043E00005900AF043FBCDE906010AF099F8CDE902
:1043F00008010AF0F7FA80B21190BDF85000BDF83C
:104400005810401A0A90002801DB0A9801E00A9827
:1044100040420F9013A8C188C089081A0A9000284A
:1044200001DB0A9801E00A9840420E900F98404341
:104430000F900E9840430E90DDE90E100844059051
:104440000AF014FBCDE906010AF06AF8CDE908018B
:104450000AF0C8FA80B2109010980BF00BF809908F
:1044600011980BF007F8089009990AF0EDFE0A90F0
:104470000AF05CFECDE90C014FF06632B24BDDE98B
:104480000C010AF007FB06D3B04AB14BDDE90C0181
:104490000AF03AFC40D200201290AE48408814380E
:1044A00080B20A90AB480088143880B24FF6FF7291
:1044B00009900A99FFF70FFC4FF47842142108463F
:1044C000FFF709FC00229F4BDDE90C010AF01EFBFF
:1044D000CDE908010AF086FA80B213A90A90C989C9
:1044E000BDF8582013AB5B89CDE90132CDE903104B
:1044F000BDF85400009013A8C0880990BDF8500082
:104500000890BDF84E000790BDF84C00069007A932
:104510000EC9FFF7F5FCD2E1BDF85000BDF854100C
:10452000401A0A90002801DB0A9801E00A984042EC
:104530000F9013A8C1884089081A0A90002801DB4F
:104540000A9801E00A9840420E900F9840430F905D
:104550000E9840430E90DDE90E10084405900AF0D5
:1045600085FACDE9060109F0DBFFCDE908010AF083
:1045700039FA80B21190BDF84C00BDF85810401ABD
:104580000A90002801DB0A9801E00A9840420F9047
:10459000BDF84E1013A8C089081A0A90002801DB44
:1045A0000A9801E00A9840420E900F9840430F90FD
:1045B0000E9840430E90DDE90E10084405900AF075
:1045C00055FACDE9060109F0ABFFCDE908010AF083
:1045D00009FA80B2109010980AF04CFF09901198D7
:1045E0000AF048FF089009990AF02EFE0A900AF096
:1045F0009DFDCDE90C014FF06632534BDDE90C0116
:104600000AF048FA06D3514A514BDDE90C010AF091
:104610007BFB40D2002012904E484088143880B274
:104620000A904C480088143880B24FF6FF72099007
:104630000A99FFF750FB4FF4784214210846FFF720
:104640004AFB00223F4BDDE90C010AF05FFACDE99D
:1046500008010AF0C7F980B213A90A90C989BDF808
:10466000582013AB5B89CDE90132CDE90310BDF8C9
:104670005400009013A8C0880990BDF8500008901D
:10468000BDF84E000790BDF84C00069007A90EC972
:10469000FFF736FC13E1BDF85000BDF84C10401A8E
:1046A00008900AF0CFFE0A902A480088283808901F
:1046B0000AF0C8FE09900A990AF0C6FD2649486228
:1046C000BDF85000BDF84C10084405900AF0BAFE41
:1046D00006902148406A0146059006980AF0DEFEE1
:1046E00008901C48008806900AF0C4FE07900899BC
:1046F0000AF0A0FF4FF0804109900AF0A5FD0A9052
:104700000AF064FE00B21449888513A84089BDF8F8
:104710004E10401A08900AF095FE0A900D48408805
:10472000283808900AF08EFE09900A990AF08CFD4C
:104730000949886213A84089BDF84E1008440590C5
:104740000CE00000000059406666EE3FCDCCCCCCBA
:10475000CCCCF03FF4020020E40000200AF072FE0E
:104760000690AB48806A0146059006980AF096FECE
:104770000890A848408806900AF07CFE07900899A7
:104780000AF058FF4FF0804109900AF05DFD0A9051
:104790000AF01CFE00B29E49C8850846406A08908F
:1047A0000AF014FE0990002801DB099801E009983D
:1047B000404202280DDC9648806A08900AF006FE06
:1047C0000A90002801DB0A9801E00A98404202287A
:1047D00042DD002012908F484088143880B20A9041
:1047E0008C480088143880B24FF6FF7209900A99FD
:1047F000FFF771FA4FF4784214210846FFF76BFA7D
:1048000085A01021CDE90010824840880A90814897
:104810000088099002461A2128200A9B05F037FBE0
:104820007B4890F8300008B9012000E0002078496A
:1048300081F83000084690F8300030B190207B4974
:104840000870D0207A49087005E0D02077490870B8
:1048500090207749087032E01F20764908804FF693
:10486000FF7001F090FC74A01021CDE900106948A0
:1048700040880A9067480088099002466E212320EC
:104880000A9B05F004FB4FF47A7005F0ACFDFFF7CE
:10489000F7FA4FF6FF7001F076FC17B000BD00BFCD
:1048A0000A2005F0A0FD0B98401C80B20B900B98DD
:1048B000B0F57A7F02DDFFF7EFFA01E000BF0BE40D
:1048C00000BF00BFE9E708B55248808845F21051A3
:1048D000884220D1FEF794FD18B95D484C494860E4
:1048E00004E0FEF79CFF5B4849494860484890F85F
:1048F000300040F08000464981F83000084690F8CA
:1049000030004449897901F001010843404981F8A8
:104910003000002008BD3F48808841F6631188427E
:1049200018D1FEF79CFB4C4839494860084690F87E
:10493000300040F0800081F83000084690F83000E8
:104940003449897901F001010843314981F8300087
:104950000020DFE70121882006F08AFD0220ADF863
:10496000000010208DF8030003208DF80200694636
:104970003A4806F05BFA0221384806F004FB0420AE
:10498000ADF8000048208DF803006946334806F072
:104990004DFA0421314806F0F6FA4FF42060ADF8E4
:1049A000000010208DF8030003208DF802006946F6
:1049B0002B4806F03BFA4FF42061294806F0E3FA51
:1049C0004FF48060ADF8000048208DF80300694680
:1049D000234806F02BFA4FF48061214806F0D3FA01
:1049E0000B491631A1F10A00FFF702F900F03AF87D
:1049F000FFF752FA08B100208CE74FF6FF7001F084
:104A0000C2FBFFF738FBFFF747FA00BF012081E741
:104A1000E4000020F40200205450204E656564201C
:104A2000726561646A7573742100000018010020CA
:104A3000190100201C010020546F75636820536326
:104A40007265656E2041646A757374204F4B210056
:104A50000D350008BB38000837310008000C014054
:104A6000001C014010B5FBF7E1FB10BD70B504461A
:104A70000026FBF7F2FB2546E11704EB1161091252
:104A8000A02202EB4101C8B2FBF799FCFBF726FC20
:104A9000E11704EB11610912A4EB0121C8B2FBF785
:104AA0008EFCFBF71BFCFBF7D8FBA120FBF787FC78
:104AB000FBF714FC0020FBF7B0FC0646FBF7EDFB10
:104AC000304670BD70B504460E46FBF7C6FB254662
:104AD000E11704EB11610912A02202EB4101C8B2F7
:104AE000FBF76DFCFBF7FAFBE11704EB1161091210
:104AF000A4EB0121C8B2FBF762FCFBF7EFFB3046E9
:104B0000FBF75DFCFBF7EAFBFBF7C7FB42F210701B
:104B100005F045FC70BD10B5FF20FFF7A7FF044668
:104B2000552C01D1002010BD5521FF20FFF7CAFFF1
:104B3000FF20FFF79BFF0446552C01D10020F2E730
:104B40000120F0E770B506460C46154608E03046F1
:104B5000721C96B2FFF78AFF04F8010B681E85B23B
:104B6000002DF4D170BD70B505460C46164606E022
:104B700021782846FFF7A6FF681C85B2641C300028
:104B8000A6F101018EB2F3D170BD00007FB50546DC
:104B90000C460121022006F078FCADF80850ADF873
:104BA00004400020ADF80A00ADF8060001A92B482A
:104BB00007F03EF801221146284807F0B0FB1D20FF
:104BC0008DF8000000208DF8010003208DF8020010
:104BD00001208DF80300684605F0F7FC01211F480D
:104BE00007F082FB7FBD7FB505460C4601210420FE
:104BF00006F04BFCADF80850ADF804400020ADF8CD
:104C00000A00ADF8060001A9154807F011F80122C5
:104C10001146134807F083FB1E208DF8000000208A
:104C20008DF8010003208DF8020001208DF80300AB
:104C3000684605F0CAFC0121094807F055FB7FBD15
:104C400010B504462146074806F0B2FD00BF4021DA
:104C5000044806F01BFE0128F9D110BD00040040F5
:104C6000000800400038014000B585B001214FF434
:104C7000017006F0FDFB4FF4004006F05DFB7D483F
:104C800000F03EF9002000908DF804008DF805003A
:104C90004FF4602002900020039001208DF8100056
:104CA0006946744800F053F9012000F00DFB012122
:104CB000704800F078F96F4800F097F900BF6D4830
:104CC00000F098F90028FAD16A4800F09DF900BF79
:104CD000684800F09EF90028FAD105B000BD10B573
:104CE0000446072301222146624800F0C8F9012149
:104CF000604800F098F900BF02215E4800F004FB14
:104D00000028F9D05B4800F021FA10BD70B50024EE
:104D1000002509E01020FFF7E2FF204484B20520BF
:104D200005F061FB681CC5B20A2DF3DB0A2094FB79
:104D3000F0F080B270BD2DE9F04107460C46002529
:104D4000002608E03846FFF7CAFF0544052005F0B5
:104D50004AFB701CC6B2A642F4DBB5FBF4F080B28D
:104D6000BDE8F0812DE9F05F14211020FFF7E3FF8B
:104D7000834658460AF07EFB80460AF0D7F906467D
:104D80004FF066323C4B09F0C1FE04460D46224608
:104D90002B463A483A490AF0DFF88046394A3A4BFE
:104DA00009F098FC06460022384B09F0DFFB044668
:104DB0000D460022364B2046294609F0A7FE06463E
:104DC00009F0E0FD0FFA80FA5046BDE8F09F00B50B
:104DD00085B00121C80306F04BFB0121C80306F092
:104DE00061FB00214FF4004006F05CFB294800F015
:104DF00087F8002000908DF804008DF805004FF42E
:104E0000602002900020039001208DF81000694678
:104E1000204800F09CF801211E4800F0C4F81D480D
:104E200000F0E3F800BF1B4800F0E4F80028FAD1D6
:104E3000184800F0E9F800BF164800F0EAF800282A
:104E4000FAD105B000BD10B5044607230122214662
:104E5000104800F014F901210E4800F0E4F800BFFA
:104E600002210C4800F050FA0028F9D0094800F05F
:104E70006DF910BD0024014066664A3FE17A14AE28
:104E800047E1F63F22FDF675E09C713F0000394096
:104E900000005940003C014008B50121802006F087
:104EA000E7FA4FF48070ADF8000000208DF80300A1
:104EB0006946124805F0BAFFFFF789FF08BD70B5D3
:104EC0000024002508E00620FFF7BDFF044405206C
:104ED00005F089FA681CC5B20A2DF4DB0A20B4FB80
:104EE000F0F4B4F57A6F01D94FF47A642820B4FB5A
:104EF000F0F0C0F16400C0B270BD0000001C0140C1
:104F000010B50446FA48844208D10121401506F044
:104F1000C9FA0021601506F0C5FA17E0F548844289
:104F200008D10121001506F0BDFA0021201506F078
:104F3000B9FA0BE0F048844208D10121C80306F019
:104F4000B1FA00214FF4004006F0ACFA10BD30B5C4
:104F50000246002000235068E84C20400D790C6880
:104F600044EA0524204350609068E54C2040D1E994
:104F700002542C434D7944EA450420439060D06AA2
:104F800020F470000C7C641EE4B2234340EA03501A
:104F9000D06230BD00210160017141718160C1604A
:104FA00001210174704721B1826842F001028260E0
:104FB00003E0826822F001028260704721B18268BA
:104FC00042F48072826003E0826822F48072826020
:104FD000704710B50023CBB21AB144681C4344603B
:104FE00002E044689C43446010BD816841F00801C0
:104FF00081607047014600208A6802F008020AB109
:10500000012000E000207047816841F004018160C8
:105010007047014600208A6802F004020AB10120AC
:1050200000E00020704721B1826842F4A002826053
:1050300003E0826822F4A0028260704701460020EB
:105040008A6802F480020AB1012000E00020704763
:1050500010B50A4600210023416821F46041531E27
:1050600041EA4331416010BD21B1426842F400621F
:10507000426003E0426822F4006242607047F0B58B
:1050800004460D4600200021092D11DDE068A5F140
:105090000A0606EB4607072606FA07F18843A5F13C
:1050A0000A0606EB460603FA06F10843E0600CE048
:1050B000206905EB4507072606FA07F1884305EB4B
:1050C000450603FA06F108432061072A0FDA606BF0
:1050D000561E06EB86071F2606FA07F18843561E62
:1050E00006EB860605FA06F10843606322E00D2A06
:1050F0000FDA206BD61F06EB86071F2606FA07F18C
:105100008843D61F06EB860605FA06F1084320639E
:1051100010E0E06AA2F10D0606EB86071F2606FAEC
:1051200007F18843A2F10D0606EB860605FA06F1A3
:105130000843E062F0BD21B1826842F480128260CF
:1051400003E0826822F48012826070470146C86CD6
:1051500080B2704766484C300068704721B14268A1
:1051600042F48062426003E0426822F4806242605E
:10517000704721B1426842F48052426003E04268C5
:1051800022F48052426070470A460021816821F46F
:10519000E04111438160704721B1826842F40042CE
:1051A000826003E0826822F400428260704721B18D
:1051B000826842F40212826003E0826822F40212E2
:1051C00082607047014600208A6802F400120AB12A
:1051D000012000E000207047F0B50446154600208D
:1051E00000220026092911DDE068A1F10A0707EB7A
:1051F000470C072707FA0CF29043A1F10A0707EBC7
:10520000470703FA07F21043E0600CE0206901EB66
:10521000410C072707FA0CF2904301EB410703FA10
:1052200007F210432061A06BC0F30156EF1C06F19A
:10523000010CA7EB0C0707EB870C1F2707FA0CF2F2
:105240009043EF1C06F1010CA7EB0C0707EB870757
:1052500001FA07F21043A063F0BD10B50A46002121
:105260000023816B21F44011531E41EA03518163F5
:1052700010BD08B5002300930090009B0B440093E1
:10528000009B1A6008BD08B50246002000900092FD
:1052900001F12800009B184400900098006880B23B
:1052A00008BD0A4600214168164B19401143416070
:1052B00070474162826270470A460021416821F0CE
:1052C0001F0111434160704740B109490831096825
:1052D00041F40001064A0832116007E00449083130
:1052E000096821F40001024A083211607047000089
:1052F0000024014000280140003C0140FFFEF0FF77
:10530000FDF7F1FFFFFD3FFF0246002013680B4051
:105310000BB1012000E000207047CA4302607047D3
:1053200070B502460020002300240B125568CEB24F
:1053300005EA060415681D4015B10CB1012000E016
:10534000002070BD00220A12D343036070470000A2
:1053500008B50121482006F08BF82020ADF80000A8
:1053600010208DF8030003208DF8020069460948DB
:1053700005F05CFD2021074805F005FE2020ADF872
:1053800000006946044805F051FD2021024805F05F
:10539000FAFD08BD000C01400018014008B50121CC
:1053A000442006F065F81C20ADF8000048208DF878
:1053B00003006946354805F039FD0120ADF80000CD
:1053C00028208DF803006946314805F02FFD08BDFF
:1053D00010B5044614B101202E4908702D480078FC
:1053E000002837D01021294805F0B3FD78B10821F5
:1053F000264805F0AEFD50B10421244805F0A9FD72
:1054000028B10121224805F0A4FD012822D10A205B
:1054100004F0E9FF00201F49087010211B4805F027
:1054200098FD08B9012010BD0821184805F091FD2C
:1054300008B90220F7E70421144805F08AFD08B9ED
:105440000320F0E70121124805F083FD01281BD15C
:105450000420E8E710210D4805F07BFD012813D159
:1054600008210A4805F075FD01280DD104210748DF
:1054700005F06FFD012807D10121054805F069FD00
:1054800010B90120034908700020CCE70018014042
:10549000000801401A010020F74908807047F649CA
:1054A000891C0880704708B5F348801C008800906C
:1054B000BDF8000008BDF04A1080921C11807047B2
:1054C00010B504462046FFF7E7FF052004F067FF0C
:1054D000FFF7E9FF10BDE9480089E74908807047F8
:1054E000E549891C0880704730B5014601F01F046A
:1054F000C1F34513CA0AE50205EB43151544A8B2EA
:1055000030BD00BF0100A0F10102D0B2FAD1704756
:1055100010B503460C46D948808849F2413188428B
:1055200005D0D648808845F21031884214D1D3493D
:105530004889FFF7B1FF1812FFF7B1FFD8B2FFF7A4
:10554000AEFFCE498889FFF7A7FF2012FFF7A7FF1C
:10555000E0B2FFF7A4FFABE0C848808846F604013C
:1055600088421DD1C5488079012804D1C3480088EC
:10557000401EC01A83B2C1494889FFF78DFF181237
:10558000FFF78DFFD8B2FFF78AFFBC498889FFF784
:1055900083FF2012FFF783FFE0B2FFF780FF87E071
:1055A000B648808841F66311884247D1B348807974
:1055B000A8B9B2480088401EC01A83B2AF494889D2
:1055C000FFF76AFF0020FFF76AFF0020FFF767FF81
:1055D0001812FFF764FFD8B2FFF761FF16E0A74982
:1055E0004889FFF759FF1812FFF759FFD8B2FFF7A4
:1055F00056FFA2490988491EC1F30F20FFF74FFF4C
:105600009E490978491EC8B2FFF749FF9B4988891E
:10561000FFF742FF2012FFF742FFE0B2FFF73FFF24
:1056200096494988491EC1F30F20FFF738FF934977
:105630008978491EC8B2FFF732FF39E08F48808869
:1056400045F21051884220D18C494889FFF724FF48
:105650001812FFF724FF89494989491C88B2FFF7CE
:105660001BFFD8B2FFF71BFF84498889FFF714FF9F
:105670002012FFF714FF81498989491C88B2FFF77E
:105680000BFFE0B2FFF70BFF12E07C4880790128A6
:1056900004D17A480088401EC01A83B277494889ED
:1056A0001946FFF708FF754988892146FFF703FF70
:1056B00010BD2DE9F04105460E4600240027A04606
:1056C0006E480088A84203DD6C484088B04202DC86
:1056D0000020BDE8F08131462846FFF719FF6748F2
:1056E000808849F24131884211D06448808846F66A
:1056F000040188420BD06148808845F2103188420D
:1057000005D05E48808841F66311884203D12E207F
:10571000FFF7C2FE0DE05948808845F210518842DB
:1057200004D14FF43850FFF7B7FE02E02220FFF714
:10573000B3FE5248808849F22031884202D10220CB
:10574000FFF7DFFEFFF7AFFE04464C48808841F6C6
:105750006311884201D12046BBE70220FFF7D1FE4A
:10576000FFF7A1FE04464548808849F2413188424E
:105770000BD04248808845F21031884205D03F481E
:10578000808845F2105188420AD10220FFF7B9FE05
:10579000FFF789FE8046E7B24FF6FF7000EA072761
:1057A0003648808849F22531884216D033488088AF
:1057B00044F23551884210D030488088091F884211
:1057C0000BD02E4880884BF20551884205D02B48DB
:1057D00080884CF20551884201D1204679E727485C
:1057E000808849F2413188420BD02448808845F2B4
:1057F0001031884205D02148808845F210518842F6
:1058000007D1E012C002B91240EA411040EAE82094
:105810005FE72046FFF768FE5BE700B51748808822
:1058200049F24131884211D01448808846F604017B
:1058300088420BD01148808845F21031884205D04B
:105840000E48808841F66311884203D12920FFF772
:1058500023FE0FE00948808845F21051884204D1A8
:105860004FF42450FFF718FE04E040F273110720B4
:10587000FFF721FE00BD0000FE07006CF4020020CF
:1058800000B5FD48808849F24131884211D0FA487C
:10589000808846F6040188420BD0F748808845F29C
:1058A0001031884205D0F448808841F6631188425F
:1058B00003D12820FFF7F0FD0EE0EF48808845F285
:1058C0001051884204D14FF42050FFF7E5FD03E06A
:1058D00000210720FFF7EFFD00BD70B5044600234F
:1058E0000026E548807901280BD1E348808846F6F8
:1058F0000401884205D0E048808841F6631188425F
:1059000008D1DD488079F0B9DB48808841F6631121
:10591000884218D1082C15D2DFE804F00406080AE2
:105920000C0E101206240DE007240BE0042409E0FD
:10593000052407E0012405E0002403E0032401E03E
:10594000022400BF00BFCC48808849F24131884220
:1059500017D0C948808846F60401884211D0C6484D
:10596000808845F2103188420BD0C348808845F2C8
:105970001051884205D0C048808841F663118842A2
:105980007ED1082C1CD2DFE804F00406090C0F12AB
:10599000151800BF14E043F0800311E043F040030A
:1059A0000EE043F0C0030BE043F0200308E043F0B7
:1059B000600305E043F0A00302E043F0E00300BF12
:1059C00000BFAD48808845F21051884202D14FF4A3
:1059D000585600E03626A848808845F210318842A3
:1059E0000DD0A548808845F21051884207D0A248C2
:1059F000808841F66311884201D043F008039E4835
:105A0000808846F60401884201D143F0020319461A
:105A10003046FFF750FD9848808841F66311884270
:105A20001DD003F0200068B193480088924949884E
:105A3000884214DA9048058840888F4908800846D3
:105A400045800CE08C4800888B494988884206DDF7
:105A500089480588408888490880084645808648E6
:105A6000808845F21051884254D183494889FFF714
:105A700013FD0020FFF713FD7F494989491C00E011
:105A800077E088B2FFF708FD0020FFF708FD7A49AC
:105A90004989891C88B2FFF7FFFC77490988491EAC
:105AA000C1F30F20FFF7FBFC73494989C91C88B279
:105AB000FFF7F2FC70490978491EC8B2FFF7EFFC06
:105AC0006D498889FFF7E8FC0020FFF7E8FC6A4988
:105AD0008989491C88B2FFF7DFFC0020FFF7DFFC53
